{
  "_format": "hh-sol-artifact-1",
  "contractName": "DynamicSvgNft",
  "sourceName": "contracts/DynamicSvgNft.sol",
  "abi": [
    {
      "inputs": [
        {
          "internalType": "address",
          "name": "priceFeedAddress",
          "type": "address"
        },
        {
          "internalType": "string",
          "name": "lowSvg",
          "type": "string"
        },
        {
          "internalType": "string",
          "name": "highSvg",
          "type": "string"
        }
      ],
      "stateMutability": "nonpayable",
      "type": "constructor"
    },
    {
      "anonymous": false,
      "inputs": [
        {
          "indexed": true,
          "internalType": "address",
          "name": "owner",
          "type": "address"
        },
        {
          "indexed": true,
          "internalType": "address",
          "name": "approved",
          "type": "address"
        },
        {
          "indexed": true,
          "internalType": "uint256",
          "name": "tokenId",
          "type": "uint256"
        }
      ],
      "name": "Approval",
      "type": "event"
    },
    {
      "anonymous": false,
      "inputs": [
        {
          "indexed": true,
          "internalType": "address",
          "name": "owner",
          "type": "address"
        },
        {
          "indexed": true,
          "internalType": "address",
          "name": "operator",
          "type": "address"
        },
        {
          "indexed": false,
          "internalType": "bool",
          "name": "approved",
          "type": "bool"
        }
      ],
      "name": "ApprovalForAll",
      "type": "event"
    },
    {
      "anonymous": false,
      "inputs": [
        {
          "indexed": true,
          "internalType": "uint256",
          "name": "tokenId",
          "type": "uint256"
        },
        {
          "indexed": false,
          "internalType": "int256",
          "name": "highValue",
          "type": "int256"
        }
      ],
      "name": "CreatedNFT",
      "type": "event"
    },
    {
      "anonymous": false,
      "inputs": [
        {
          "indexed": true,
          "internalType": "address",
          "name": "from",
          "type": "address"
        },
        {
          "indexed": true,
          "internalType": "address",
          "name": "to",
          "type": "address"
        },
        {
          "indexed": true,
          "internalType": "uint256",
          "name": "tokenId",
          "type": "uint256"
        }
      ],
      "name": "Transfer",
      "type": "event"
    },
    {
      "inputs": [
        {
          "internalType": "address",
          "name": "to",
          "type": "address"
        },
        {
          "internalType": "uint256",
          "name": "tokenId",
          "type": "uint256"
        }
      ],
      "name": "approve",
      "outputs": [],
      "stateMutability": "nonpayable",
      "type": "function"
    },
    {
      "inputs": [
        {
          "internalType": "address",
          "name": "owner",
          "type": "address"
        }
      ],
      "name": "balanceOf",
      "outputs": [
        {
          "internalType": "uint256",
          "name": "",
          "type": "uint256"
        }
      ],
      "stateMutability": "view",
      "type": "function"
    },
    {
      "inputs": [
        {
          "internalType": "uint256",
          "name": "tokenId",
          "type": "uint256"
        }
      ],
      "name": "getApproved",
      "outputs": [
        {
          "internalType": "address",
          "name": "",
          "type": "address"
        }
      ],
      "stateMutability": "view",
      "type": "function"
    },
    {
      "inputs": [
        {
          "internalType": "address",
          "name": "owner",
          "type": "address"
        },
        {
          "internalType": "address",
          "name": "operator",
          "type": "address"
        }
      ],
      "name": "isApprovedForAll",
      "outputs": [
        {
          "internalType": "bool",
          "name": "",
          "type": "bool"
        }
      ],
      "stateMutability": "view",
      "type": "function"
    },
    {
      "inputs": [
        {
          "internalType": "int256",
          "name": "highValue",
          "type": "int256"
        }
      ],
      "name": "mintNft",
      "outputs": [],
      "stateMutability": "nonpayable",
      "type": "function"
    },
    {
      "inputs": [],
      "name": "name",
      "outputs": [
        {
          "internalType": "string",
          "name": "",
          "type": "string"
        }
      ],
      "stateMutability": "view",
      "type": "function"
    },
    {
      "inputs": [
        {
          "internalType": "uint256",
          "name": "tokenId",
          "type": "uint256"
        }
      ],
      "name": "ownerOf",
      "outputs": [
        {
          "internalType": "address",
          "name": "",
          "type": "address"
        }
      ],
      "stateMutability": "view",
      "type": "function"
    },
    {
      "inputs": [
        {
          "internalType": "uint256",
          "name": "",
          "type": "uint256"
        }
      ],
      "name": "s_tokenIdToHighValue",
      "outputs": [
        {
          "internalType": "int256",
          "name": "",
          "type": "int256"
        }
      ],
      "stateMutability": "view",
      "type": "function"
    },
    {
      "inputs": [
        {
          "internalType": "address",
          "name": "from",
          "type": "address"
        },
        {
          "internalType": "address",
          "name": "to",
          "type": "address"
        },
        {
          "internalType": "uint256",
          "name": "tokenId",
          "type": "uint256"
        }
      ],
      "name": "safeTransferFrom",
      "outputs": [],
      "stateMutability": "nonpayable",
      "type": "function"
    },
    {
      "inputs": [
        {
          "internalType": "address",
          "name": "from",
          "type": "address"
        },
        {
          "internalType": "address",
          "name": "to",
          "type": "address"
        },
        {
          "internalType": "uint256",
          "name": "tokenId",
          "type": "uint256"
        },
        {
          "internalType": "bytes",
          "name": "data",
          "type": "bytes"
        }
      ],
      "name": "safeTransferFrom",
      "outputs": [],
      "stateMutability": "nonpayable",
      "type": "function"
    },
    {
      "inputs": [
        {
          "internalType": "address",
          "name": "operator",
          "type": "address"
        },
        {
          "internalType": "bool",
          "name": "approved",
          "type": "bool"
        }
      ],
      "name": "setApprovalForAll",
      "outputs": [],
      "stateMutability": "nonpayable",
      "type": "function"
    },
    {
      "inputs": [
        {
          "internalType": "bytes4",
          "name": "interfaceId",
          "type": "bytes4"
        }
      ],
      "name": "supportsInterface",
      "outputs": [
        {
          "internalType": "bool",
          "name": "",
          "type": "bool"
        }
      ],
      "stateMutability": "view",
      "type": "function"
    },
    {
      "inputs": [
        {
          "internalType": "string",
          "name": "svg",
          "type": "string"
        }
      ],
      "name": "svgToImageURI",
      "outputs": [
        {
          "internalType": "string",
          "name": "",
          "type": "string"
        }
      ],
      "stateMutability": "pure",
      "type": "function"
    },
    {
      "inputs": [],
      "name": "symbol",
      "outputs": [
        {
          "internalType": "string",
          "name": "",
          "type": "string"
        }
      ],
      "stateMutability": "view",
      "type": "function"
    },
    {
      "inputs": [
        {
          "internalType": "uint256",
          "name": "tokenId",
          "type": "uint256"
        }
      ],
      "name": "tokenURI",
      "outputs": [
        {
          "internalType": "string",
          "name": "",
          "type": "string"
        }
      ],
      "stateMutability": "view",
      "type": "function"
    },
    {
      "inputs": [
        {
          "internalType": "address",
          "name": "from",
          "type": "address"
        },
        {
          "internalType": "address",
          "name": "to",
          "type": "address"
        },
        {
          "internalType": "uint256",
          "name": "tokenId",
          "type": "uint256"
        }
      ],
      "name": "transferFrom",
      "outputs": [],
      "stateMutability": "nonpayable",
      "type": "function"
    }
  ],
  "bytecode": "0x60a06040523480156200001157600080fd5b50604051620036ca380380620036ca8339818101604052810190620000379190620004e2565b6040518060400160405280600f81526020017f44796e616d696320535647204e465400000000000000000000000000000000008152506040518060400160405280600381526020017f44534e00000000000000000000000000000000000000000000000000000000008152508160009080519060200190620000bb9291906200039d565b508060019080519060200190620000d49291906200039d565b5050506000600681905550620000f0826200017160201b60201c565b60079080519060200190620001079291906200039d565b5062000119816200017160201b60201c565b60089080519060200190620001309291906200039d565b508273ffffffffffffffffffffffffffffffffffffffff1660808173ffffffffffffffffffffffffffffffffffffffff1660601b815250505050506200093a565b60606000620001ac836040516020016200018c9190620005b3565b6040516020818303038152906040526200020f60201b62000d691760201c565b90506040518060400160405280601a81526020017f646174613a696d6167652f7376672b786d6c3b6261736536342c00000000000081525081604051602001620001f8929190620005cc565b604051602081830303815290604052915050919050565b6060600082511415620002345760405180602001604052806000815250905062000398565b60006040518060600160405280604081526020016200368a604091399050600060036002855162000266919062000669565b620002729190620006c6565b6004620002809190620006fe565b9050600060208262000293919062000669565b67ffffffffffffffff811115620002af57620002ae620008cc565b5b6040519080825280601f01601f191660200182016040528015620002e25781602001600182028036833780820191505090505b509050818152600183018586518101602084015b8183101562000353576003830192508251603f8160121c168501518253600182019150603f81600c1c168501518253600182019150603f8160061c168501518253600182019150603f8116850151825360018201915050620002f6565b60038951066001811462000370576002811462000381576200038c565b613d3d60f01b60028303526200038c565b603d60f81b60018303525b50505050508093505050505b919050565b828054620003ab90620007d3565b90600052602060002090601f016020900481019282620003cf57600085556200041b565b82601f10620003ea57805160ff19168380011785556200041b565b828001600101855582156200041b579182015b828111156200041a578251825591602001919060010190620003fd565b5b5090506200042a91906200042e565b5090565b5b80821115620004495760008160009055506001016200042f565b5090565b6000620004646200045e846200061d565b620005f4565b90508281526020810184848401111562000483576200048262000900565b5b620004908482856200079d565b509392505050565b600081519050620004a98162000920565b92915050565b600082601f830112620004c757620004c6620008fb565b5b8151620004d98482602086016200044d565b91505092915050565b600080600060608486031215620004fe57620004fd6200090a565b5b60006200050e8682870162000498565b935050602084015167ffffffffffffffff81111562000532576200053162000905565b5b6200054086828701620004af565b925050604084015167ffffffffffffffff81111562000564576200056362000905565b5b6200057286828701620004af565b9150509250925092565b6000620005898262000653565b6200059581856200065e565b9350620005a78185602086016200079d565b80840191505092915050565b6000620005c182846200057c565b915081905092915050565b6000620005da82856200057c565b9150620005e882846200057c565b91508190509392505050565b60006200060062000613565b90506200060e828262000809565b919050565b6000604051905090565b600067ffffffffffffffff8211156200063b576200063a620008cc565b5b62000646826200090f565b9050602081019050919050565b600081519050919050565b600081905092915050565b6000620006768262000793565b9150620006838362000793565b9250827fffffffffffffffffffffffffffffffffffffffffffffffffffffffffffffffff03821115620006bb57620006ba6200083f565b5b828201905092915050565b6000620006d38262000793565b9150620006e08362000793565b925082620006f357620006f26200086e565b5b828204905092915050565b60006200070b8262000793565b9150620007188362000793565b9250817fffffffffffffffffffffffffffffffffffffffffffffffffffffffffffffffff04831182151516156200075457620007536200083f565b5b828202905092915050565b60006200076c8262000773565b9050919050565b600073ffffffffffffffffffffffffffffffffffffffff82169050919050565b6000819050919050565b60005b83811015620007bd578082015181840152602081019050620007a0565b83811115620007cd576000848401525b50505050565b60006002820490506001821680620007ec57607f821691505b602082108114156200080357620008026200089d565b5b50919050565b62000814826200090f565b810181811067ffffffffffffffff82111715620008365762000835620008cc565b5b80604052505050565b7f4e487b7100000000000000000000000000000000000000000000000000000000600052601160045260246000fd5b7f4e487b7100000000000000000000000000000000000000000000000000000000600052601260045260246000fd5b7f4e487b7100000000000000000000000000000000000000000000000000000000600052602260045260246000fd5b7f4e487b7100000000000000000000000000000000000000000000000000000000600052604160045260246000fd5b600080fd5b600080fd5b600080fd5b600080fd5b6000601f19601f8301169050919050565b6200092b816200075f565b81146200093757600080fd5b50565b60805160601c612d31620009596000396000610a820152612d316000f3fe608060405234801561001057600080fd5b50600436106101005760003560e01c80636352211e11610097578063b88d4fde11610066578063b88d4fde146102bd578063c87b56dd146102d9578063e425aded14610309578063e985e9c51461033957610100565b80636352211e1461022357806370a082311461025357806395d89b4114610283578063a22cb465146102a157610100565b80631e930812116100d35780631e9308121461019f57806323b872dd146101bb57806330d871c6146101d757806342842e0e1461020757610100565b806301ffc9a71461010557806306fdde0314610135578063081812fc14610153578063095ea7b314610183575b600080fd5b61011f600480360381019061011a9190611d3d565b610369565b60405161012c9190612288565b60405180910390f35b61013d61044b565b60405161014a91906122be565b60405180910390f35b61016d60048036038101906101689190611e0d565b6104dd565b60405161017a9190612221565b60405180910390f35b61019d60048036038101906101989190611cfd565b610523565b005b6101b960048036038101906101b49190611d97565b61063b565b005b6101d560048036038101906101d09190611be7565b6106b3565b005b6101f160048036038101906101ec9190611dc4565b610713565b6040516101fe91906122be565b60405180910390f35b610221600480360381019061021c9190611be7565b6107a0565b005b61023d60048036038101906102389190611e0d565b6107c0565b60405161024a9190612221565b60405180910390f35b61026d60048036038101906102689190611b7a565b610872565b60405161027a9190612460565b60405180910390f35b61028b61092a565b60405161029891906122be565b60405180910390f35b6102bb60048036038101906102b69190611cbd565b6109bc565b005b6102d760048036038101906102d29190611c3a565b6109d2565b005b6102f360048036038101906102ee9190611e0d565b610a34565b60405161030091906122be565b60405180910390f35b610323600480360381019061031e9190611e0d565b610cbd565b60405161033091906122a3565b60405180910390f35b610353600480360381019061034e9190611ba7565b610cd5565b6040516103609190612288565b60405180910390f35b60007f80ac58cd000000000000000000000000000000000000000000000000000000007bffffffffffffffffffffffffffffffffffffffffffffffffffffffff1916827bffffffffffffffffffffffffffffffffffffffffffffffffffffffff1916148061043457507f5b5e139f000000000000000000000000000000000000000000000000000000007bffffffffffffffffffffffffffffffffffffffffffffffffffffffff1916827bffffffffffffffffffffffffffffffffffffffffffffffffffffffff1916145b80610444575061044382610ee2565b5b9050919050565b60606000805461045a90612730565b80601f016020809104026020016040519081016040528092919081815260200182805461048690612730565b80156104d35780601f106104a8576101008083540402835291602001916104d3565b820191906000526020600020905b8154815290600101906020018083116104b657829003601f168201915b5050505050905090565b60006104e882610f4c565b6004600083815260200190815260200160002060009054906101000a900473ffffffffffffffffffffffffffffffffffffffff169050919050565b600061052e826107c0565b90508073ffffffffffffffffffffffffffffffffffffffff168373ffffffffffffffffffffffffffffffffffffffff16141561059f576040517f08c379a000000000000000000000000000000000000000000000000000000000815260040161059690612420565b60405180910390fd5b8073ffffffffffffffffffffffffffffffffffffffff166105be610f97565b73ffffffffffffffffffffffffffffffffffffffff1614806105ed57506105ec816105e7610f97565b610cd5565b5b61062c576040517f08c379a0000000000000000000000000000000000000000000000000000000008152600401610623906123c0565b60405180910390fd5b6106368383610f9f565b505050565b806009600060065481526020019081526020016000208190555061066133600654611058565b6006547f882d3b5a729a8bb95cf6c0083c99b42ecd9637123d4425bd7b768877fd8af8b08260405161069391906122a3565b60405180910390a260016006546106aa9190612545565b60068190555050565b6106c46106be610f97565b82611076565b610703576040517f08c379a00000000000000000000000000000000000000000000000000000000081526004016106fa90612440565b60405180910390fd5b61070e83838361110b565b505050565b6060600061073f8360405160200161072b91906121a1565b604051602081830303815290604052610d69565b90506040518060400160405280601a81526020017f646174613a696d6167652f7376672b786d6c3b6261736536342c000000000000815250816040516020016107899291906121b8565b604051602081830303815290604052915050919050565b6107bb838383604051806020016040528060008152506109d2565b505050565b6000806002600084815260200190815260200160002060009054906101000a900473ffffffffffffffffffffffffffffffffffffffff169050600073ffffffffffffffffffffffffffffffffffffffff168173ffffffffffffffffffffffffffffffffffffffff161415610869576040517f08c379a000000000000000000000000000000000000000000000000000000000815260040161086090612400565b60405180910390fd5b80915050919050565b60008073ffffffffffffffffffffffffffffffffffffffff168273ffffffffffffffffffffffffffffffffffffffff1614156108e3576040517f08c379a00000000000000000000000000000000000000000000000000000000081526004016108da906123a0565b60405180910390fd5b600360008373ffffffffffffffffffffffffffffffffffffffff1673ffffffffffffffffffffffffffffffffffffffff168152602001908152602001600020549050919050565b60606001805461093990612730565b80601f016020809104026020016040519081016040528092919081815260200182805461096590612730565b80156109b25780601f10610987576101008083540402835291602001916109b2565b820191906000526020600020905b81548152906001019060200180831161099557829003601f168201915b5050505050905090565b6109ce6109c7610f97565b8383611372565b5050565b6109e36109dd610f97565b83611076565b610a22576040517f08c379a0000000000000000000000000000000000000000000000000000000008152600401610a1990612440565b60405180910390fd5b610a2e848484846114df565b50505050565b6060610a3f8261153b565b610a7e576040517f08c379a0000000000000000000000000000000000000000000000000000000008152600401610a75906122e0565b60405180910390fd5b60007f000000000000000000000000000000000000000000000000000000000000000073ffffffffffffffffffffffffffffffffffffffff1663feaf968c6040518163ffffffff1660e01b815260040160a06040518083038186803b158015610ae657600080fd5b505afa158015610afa573d6000803e3d6000fd5b505050506040513d601f19601f82011682018060405250810190610b1e9190611e3a565b505050915050600060078054610b3390612730565b80601f0160208091040260200160405190810160405280929190818152602001828054610b5f90612730565b8015610bac5780601f10610b8157610100808354040283529160200191610bac565b820191906000526020600020905b815481529060010190602001808311610b8f57829003601f168201915b5050505050905060096000858152602001908152602001600020548212610c5b5760088054610bda90612730565b80601f0160208091040260200160405190810160405280929190818152602001828054610c0690612730565b8015610c535780601f10610c2857610100808354040283529160200191610c53565b820191906000526020600020905b815481529060010190602001808311610c3657829003601f168201915b505050505090505b610c636115a7565b610c94610c6e61044b565b83604051602001610c809291906121dc565b604051602081830303815290604052610d69565b604051602001610ca59291906121b8565b60405160208183030381529060405292505050919050565b60096020528060005260406000206000915090505481565b6000600560008473ffffffffffffffffffffffffffffffffffffffff1673ffffffffffffffffffffffffffffffffffffffff16815260200190815260200160002060008373ffffffffffffffffffffffffffffffffffffffff1673ffffffffffffffffffffffffffffffffffffffff16815260200190815260200160002060009054906101000a900460ff16905092915050565b6060600082511415610d8c57604051806020016040528060008152509050610edd565b6000604051806060016040528060408152602001612cbc6040913990506000600360028551610dbb9190612545565b610dc5919061259b565b6004610dd191906125cc565b90506000602082610de29190612545565b67ffffffffffffffff811115610dfb57610dfa612820565b5b6040519080825280601f01601f191660200182016040528015610e2d5781602001600182028036833780820191505090505b509050818152600183018586518101602084015b81831015610e9c576003830192508251603f8160121c168501518253600182019150603f81600c1c168501518253600182019150603f8160061c168501518253600182019150603f8116850151825360018201915050610e41565b600389510660018114610eb65760028114610ec657610ed1565b613d3d60f01b6002830352610ed1565b603d60f81b60018303525b50505050508093505050505b919050565b60007f01ffc9a7000000000000000000000000000000000000000000000000000000007bffffffffffffffffffffffffffffffffffffffffffffffffffffffff1916827bffffffffffffffffffffffffffffffffffffffffffffffffffffffff1916149050919050565b610f558161153b565b610f94576040517f08c379a0000000000000000000000000000000000000000000000000000000008152600401610f8b90612400565b60405180910390fd5b50565b600033905090565b816004600083815260200190815260200160002060006101000a81548173ffffffffffffffffffffffffffffffffffffffff021916908373ffffffffffffffffffffffffffffffffffffffff160217905550808273ffffffffffffffffffffffffffffffffffffffff16611012836107c0565b73ffffffffffffffffffffffffffffffffffffffff167f8c5be1e5ebec7d5bd14f71427d1e84f3dd0314c0f7b2291e5b200ac8c7c3b92560405160405180910390a45050565b6110728282604051806020016040528060008152506115e4565b5050565b600080611082836107c0565b90508073ffffffffffffffffffffffffffffffffffffffff168473ffffffffffffffffffffffffffffffffffffffff1614806110c457506110c38185610cd5565b5b8061110257508373ffffffffffffffffffffffffffffffffffffffff166110ea846104dd565b73ffffffffffffffffffffffffffffffffffffffff16145b91505092915050565b8273ffffffffffffffffffffffffffffffffffffffff1661112b826107c0565b73ffffffffffffffffffffffffffffffffffffffff1614611181576040517f08c379a000000000000000000000000000000000000000000000000000000000815260040161117890612320565b60405180910390fd5b600073ffffffffffffffffffffffffffffffffffffffff168273ffffffffffffffffffffffffffffffffffffffff1614156111f1576040517f08c379a00000000000000000000000000000000000000000000000000000000081526004016111e890612360565b60405180910390fd5b6111fc83838361163f565b611207600082610f9f565b6001600360008573ffffffffffffffffffffffffffffffffffffffff1673ffffffffffffffffffffffffffffffffffffffff16815260200190815260200160002060008282546112579190612626565b925050819055506001600360008473ffffffffffffffffffffffffffffffffffffffff1673ffffffffffffffffffffffffffffffffffffffff16815260200190815260200160002060008282546112ae9190612545565b92505081905550816002600083815260200190815260200160002060006101000a81548173ffffffffffffffffffffffffffffffffffffffff021916908373ffffffffffffffffffffffffffffffffffffffff160217905550808273ffffffffffffffffffffffffffffffffffffffff168473ffffffffffffffffffffffffffffffffffffffff167fddf252ad1be2c89b69c2b068fc378daa952ba7f163c4a11628f55a4df523b3ef60405160405180910390a461136d838383611644565b505050565b8173ffffffffffffffffffffffffffffffffffffffff168373ffffffffffffffffffffffffffffffffffffffff1614156113e1576040517f08c379a00000000000000000000000000000000000000000000000000000000081526004016113d890612380565b60405180910390fd5b80600560008573ffffffffffffffffffffffffffffffffffffffff1673ffffffffffffffffffffffffffffffffffffffff16815260200190815260200160002060008473ffffffffffffffffffffffffffffffffffffffff1673ffffffffffffffffffffffffffffffffffffffff16815260200190815260200160002060006101000a81548160ff0219169083151502179055508173ffffffffffffffffffffffffffffffffffffffff168373ffffffffffffffffffffffffffffffffffffffff167f17307eab39ab6107e8899845ad3d59bd9653f200f220920489ca2b5937696c31836040516114d29190612288565b60405180910390a3505050565b6114ea84848461110b565b6114f684848484611649565b611535576040517f08c379a000000000000000000000000000000000000000000000000000000000815260040161152c90612300565b60405180910390fd5b50505050565b60008073ffffffffffffffffffffffffffffffffffffffff166002600084815260200190815260200160002060009054906101000a900473ffffffffffffffffffffffffffffffffffffffff1673ffffffffffffffffffffffffffffffffffffffff1614159050919050565b60606040518060400160405280601d81526020017f646174613a6170706c69636174696f6e2f6a736f6e3b6261736536342c000000815250905090565b6115ee83836117e0565b6115fb6000848484611649565b61163a576040517f08c379a000000000000000000000000000000000000000000000000000000000815260040161163190612300565b60405180910390fd5b505050565b505050565b505050565b600061166a8473ffffffffffffffffffffffffffffffffffffffff166119ba565b156117d3578373ffffffffffffffffffffffffffffffffffffffff1663150b7a02611693610f97565b8786866040518563ffffffff1660e01b81526004016116b5949392919061223c565b602060405180830381600087803b1580156116cf57600080fd5b505af192505050801561170057506040513d601f19601f820116820180604052508101906116fd9190611d6a565b60015b611783573d8060008114611730576040519150601f19603f3d011682016040523d82523d6000602084013e611735565b606091505b5060008151141561177b576040517f08c379a000000000000000000000000000000000000000000000000000000000815260040161177290612300565b60405180910390fd5b805181602001fd5b63150b7a0260e01b7bffffffffffffffffffffffffffffffffffffffffffffffffffffffff1916817bffffffffffffffffffffffffffffffffffffffffffffffffffffffff1916149150506117d8565b600190505b949350505050565b600073ffffffffffffffffffffffffffffffffffffffff168273ffffffffffffffffffffffffffffffffffffffff161415611850576040517f08c379a0000000000000000000000000000000000000000000000000000000008152600401611847906123e0565b60405180910390fd5b6118598161153b565b15611899576040517f08c379a000000000000000000000000000000000000000000000000000000000815260040161189090612340565b60405180910390fd5b6118a56000838361163f565b6001600360008473ffffffffffffffffffffffffffffffffffffffff1673ffffffffffffffffffffffffffffffffffffffff16815260200190815260200160002060008282546118f59190612545565b92505081905550816002600083815260200190815260200160002060006101000a81548173ffffffffffffffffffffffffffffffffffffffff021916908373ffffffffffffffffffffffffffffffffffffffff160217905550808273ffffffffffffffffffffffffffffffffffffffff16600073ffffffffffffffffffffffffffffffffffffffff167fddf252ad1be2c89b69c2b068fc378daa952ba7f163c4a11628f55a4df523b3ef60405160405180910390a46119b660008383611644565b5050565b6000808273ffffffffffffffffffffffffffffffffffffffff163b119050919050565b60006119f06119eb846124a0565b61247b565b905082815260208101848484011115611a0c57611a0b612854565b5b611a178482856126ee565b509392505050565b6000611a32611a2d846124d1565b61247b565b905082815260208101848484011115611a4e57611a4d612854565b5b611a598482856126ee565b509392505050565b600081359050611a7081612c31565b92915050565b600081359050611a8581612c48565b92915050565b600081359050611a9a81612c5f565b92915050565b600081519050611aaf81612c5f565b92915050565b600082601f830112611aca57611ac961284f565b5b8135611ada8482602086016119dd565b91505092915050565b600081359050611af281612c76565b92915050565b600081519050611b0781612c76565b92915050565b600082601f830112611b2257611b2161284f565b5b8135611b32848260208601611a1f565b91505092915050565b600081359050611b4a81612c8d565b92915050565b600081519050611b5f81612c8d565b92915050565b600081519050611b7481612ca4565b92915050565b600060208284031215611b9057611b8f61285e565b5b6000611b9e84828501611a61565b91505092915050565b60008060408385031215611bbe57611bbd61285e565b5b6000611bcc85828601611a61565b9250506020611bdd85828601611a61565b9150509250929050565b600080600060608486031215611c0057611bff61285e565b5b6000611c0e86828701611a61565b9350506020611c1f86828701611a61565b9250506040611c3086828701611b3b565b9150509250925092565b60008060008060808587031215611c5457611c5361285e565b5b6000611c6287828801611a61565b9450506020611c7387828801611a61565b9350506040611c8487828801611b3b565b925050606085013567ffffffffffffffff811115611ca557611ca4612859565b5b611cb187828801611ab5565b91505092959194509250565b60008060408385031215611cd457611cd361285e565b5b6000611ce285828601611a61565b9250506020611cf385828601611a76565b9150509250929050565b60008060408385031215611d1457611d1361285e565b5b6000611d2285828601611a61565b9250506020611d3385828601611b3b565b9150509250929050565b600060208284031215611d5357611d5261285e565b5b6000611d6184828501611a8b565b91505092915050565b600060208284031215611d8057611d7f61285e565b5b6000611d8e84828501611aa0565b91505092915050565b600060208284031215611dad57611dac61285e565b5b6000611dbb84828501611ae3565b91505092915050565b600060208284031215611dda57611dd961285e565b5b600082013567ffffffffffffffff811115611df857611df7612859565b5b611e0484828501611b0d565b91505092915050565b600060208284031215611e2357611e2261285e565b5b6000611e3184828501611b3b565b91505092915050565b600080600080600060a08688031215611e5657611e5561285e565b5b6000611e6488828901611b65565b9550506020611e7588828901611af8565b9450506040611e8688828901611b50565b9350506060611e9788828901611b50565b9250506080611ea888828901611b65565b9150509295509295909350565b611ebe8161265a565b82525050565b611ecd8161266c565b82525050565b6000611ede82612502565b611ee88185612518565b9350611ef88185602086016126fd565b611f0181612863565b840191505092915050565b611f15816126a4565b82525050565b6000611f268261250d565b611f308185612529565b9350611f408185602086016126fd565b611f4981612863565b840191505092915050565b6000611f5f8261250d565b611f69818561253a565b9350611f798185602086016126fd565b80840191505092915050565b6000611f9260098361253a565b9150611f9d82612874565b600982019050919050565b6000611fb5601f83612529565b9150611fc08261289d565b602082019050919050565b6000611fd8603283612529565b9150611fe3826128c6565b604082019050919050565b6000611ffb602583612529565b915061200682612915565b604082019050919050565b600061201e601c83612529565b915061202982612964565b602082019050919050565b6000612041602483612529565b915061204c8261298d565b604082019050919050565b6000612064601983612529565b915061206f826129dc565b602082019050919050565b6000612087603e8361253a565b915061209282612a05565b603e82019050919050565b60006120aa602983612529565b91506120b582612a54565b604082019050919050565b60006120cd603e83612529565b91506120d882612aa3565b604082019050919050565b60006120f0602083612529565b91506120fb82612af2565b602082019050919050565b6000612113601883612529565b915061211e82612b1b565b602082019050919050565b6000612136602183612529565b915061214182612b44565b604082019050919050565b6000612159603e8361253a565b915061216482612b93565b603e82019050919050565b600061217c602e83612529565b915061218782612be2565b604082019050919050565b61219b816126ce565b82525050565b60006121ad8284611f54565b915081905092915050565b60006121c48285611f54565b91506121d08284611f54565b91508190509392505050565b60006121e782611f85565b91506121f38285611f54565b91506121fe8261207a565b91506122098261214c565b91506122158284611f54565b91508190509392505050565b60006020820190506122366000830184611eb5565b92915050565b60006080820190506122516000830187611eb5565b61225e6020830186611eb5565b61226b6040830185612192565b818103606083015261227d8184611ed3565b905095945050505050565b600060208201905061229d6000830184611ec4565b92915050565b60006020820190506122b86000830184611f0c565b92915050565b600060208201905081810360008301526122d88184611f1b565b905092915050565b600060208201905081810360008301526122f981611fa8565b9050919050565b6000602082019050818103600083015261231981611fcb565b9050919050565b6000602082019050818103600083015261233981611fee565b9050919050565b6000602082019050818103600083015261235981612011565b9050919050565b6000602082019050818103600083015261237981612034565b9050919050565b6000602082019050818103600083015261239981612057565b9050919050565b600060208201905081810360008301526123b98161209d565b9050919050565b600060208201905081810360008301526123d9816120c0565b9050919050565b600060208201905081810360008301526123f9816120e3565b9050919050565b6000602082019050818103600083015261241981612106565b9050919050565b6000602082019050818103600083015261243981612129565b9050919050565b600060208201905081810360008301526124598161216f565b9050919050565b60006020820190506124756000830184612192565b92915050565b6000612485612496565b90506124918282612762565b919050565b6000604051905090565b600067ffffffffffffffff8211156124bb576124ba612820565b5b6124c482612863565b9050602081019050919050565b600067ffffffffffffffff8211156124ec576124eb612820565b5b6124f582612863565b9050602081019050919050565b600081519050919050565b600081519050919050565b600082825260208201905092915050565b600082825260208201905092915050565b600081905092915050565b6000612550826126ce565b915061255b836126ce565b9250827fffffffffffffffffffffffffffffffffffffffffffffffffffffffffffffffff038211156125905761258f612793565b5b828201905092915050565b60006125a6826126ce565b91506125b1836126ce565b9250826125c1576125c06127c2565b5b828204905092915050565b60006125d7826126ce565b91506125e2836126ce565b9250817fffffffffffffffffffffffffffffffffffffffffffffffffffffffffffffffff048311821515161561261b5761261a612793565b5b828202905092915050565b6000612631826126ce565b915061263c836126ce565b92508282101561264f5761264e612793565b5b828203905092915050565b6000612665826126ae565b9050919050565b60008115159050919050565b60007fffffffff0000000000000000000000000000000000000000000000000000000082169050919050565b6000819050919050565b600073ffffffffffffffffffffffffffffffffffffffff82169050919050565b6000819050919050565b600069ffffffffffffffffffff82169050919050565b82818337600083830152505050565b60005b8381101561271b578082015181840152602081019050612700565b8381111561272a576000848401525b50505050565b6000600282049050600182168061274857607f821691505b6020821081141561275c5761275b6127f1565b5b50919050565b61276b82612863565b810181811067ffffffffffffffff8211171561278a57612789612820565b5b80604052505050565b7f4e487b7100000000000000000000000000000000000000000000000000000000600052601160045260246000fd5b7f4e487b7100000000000000000000000000000000000000000000000000000000600052601260045260246000fd5b7f4e487b7100000000000000000000000000000000000000000000000000000000600052602260045260246000fd5b7f4e487b7100000000000000000000000000000000000000000000000000000000600052604160045260246000fd5b600080fd5b600080fd5b600080fd5b600080fd5b6000601f19601f8301169050919050565b7f7b226e616d65223a220000000000000000000000000000000000000000000000600082015250565b7f555249204f7565727920666f72206e6f6e6578697374696e6720746f6b656e00600082015250565b7f4552433732313a207472616e7366657220746f206e6f6e20455243373231526560008201527f63656976657220696d706c656d656e7465720000000000000000000000000000602082015250565b7f4552433732313a207472616e736665722066726f6d20696e636f72726563742060008201527f6f776e6572000000000000000000000000000000000000000000000000000000602082015250565b7f4552433732313a20746f6b656e20616c7265616479206d696e74656400000000600082015250565b7f4552433732313a207472616e7366657220746f20746865207a65726f2061646460008201527f7265737300000000000000000000000000000000000000000000000000000000602082015250565b7f4552433732313a20617070726f766520746f2063616c6c657200000000000000600082015250565b7f222c226465736372697074696f6e223a22416e204e465420746861742063686160008201527f6e676573206261736564206f6e20636861696e6c696e6b2046656564222c0000602082015250565b7f4552433732313a2061646472657373207a65726f206973206e6f74206120766160008201527f6c6964206f776e65720000000000000000000000000000000000000000000000602082015250565b7f4552433732313a20617070726f76652063616c6c6572206973206e6f7420746f60008201527f6b656e206f776e6572206e6f7220617070726f76656420666f7220616c6c0000602082015250565b7f4552433732313a206d696e7420746f20746865207a65726f2061646472657373600082015250565b7f4552433732313a20696e76616c696420746f6b656e2049440000000000000000600082015250565b7f4552433732313a20617070726f76616c20746f2063757272656e74206f776e6560008201527f7200000000000000000000000000000000000000000000000000000000000000602082015250565b7f2261747472696275746573223a5b7b2274726169745f74797065223a22636f6f60008201527f6c6e657373222c2276616c7565223a3130307d5d2c22696d616765223a220000602082015250565b7f4552433732313a2063616c6c6572206973206e6f7420746f6b656e206f776e6560008201527f72206e6f7220617070726f766564000000000000000000000000000000000000602082015250565b612c3a8161265a565b8114612c4557600080fd5b50565b612c518161266c565b8114612c5c57600080fd5b50565b612c6881612678565b8114612c7357600080fd5b50565b612c7f816126a4565b8114612c8a57600080fd5b50565b612c96816126ce565b8114612ca157600080fd5b50565b612cad816126d8565b8114612cb857600080fd5b5056fe4142434445464748494a4b4c4d4e4f505152535455565758595a6162636465666768696a6b6c6d6e6f707172737475767778797a303132333435363738392b2fa2646970667358221220a15947225f7c94f0be3edde0197dee5f07ab5caad55983cac627bef4ac502f7364736f6c634300080700334142434445464748494a4b4c4d4e4f505152535455565758595a6162636465666768696a6b6c6d6e6f707172737475767778797a303132333435363738392b2f",
  "linkReferences": {},
  "deployedLinkReferences": {}
}