{
  "address": "0xEAF2FbeA5E6993CC4c1b49b72Cfcb8E33e78EA7A",
  "abi": [
    {
      "inputs": [
        {
          "internalType": "address",
          "name": "vrfCoordinatorV2",
          "type": "address"
        },
        {
          "internalType": "uint64",
          "name": "subscriptionId",
          "type": "uint64"
        },
        {
          "internalType": "bytes32",
          "name": "gasLane",
          "type": "bytes32"
        },
        {
          "internalType": "uint32",
          "name": "callbackGasLimit",
          "type": "uint32"
        },
        {
          "internalType": "uint256",
          "name": "mintFee",
          "type": "uint256"
        },
        {
          "internalType": "string[3]",
          "name": "dogTokenUris",
          "type": "string[3]"
        }
      ],
      "stateMutability": "nonpayable",
      "type": "constructor"
    },
    {
      "inputs": [
        {
          "internalType": "address",
          "name": "have",
          "type": "address"
        },
        {
          "internalType": "address",
          "name": "want",
          "type": "address"
        }
      ],
      "name": "OnlyCoordinatorCanFulfill",
      "type": "error"
    },
    {
      "inputs": [],
      "name": "RandomIpfsNft__NeedMoreETHSent",
      "type": "error"
    },
    {
      "inputs": [],
      "name": "RandomIpfsNft__RangeOutOfBounds",
      "type": "error"
    },
    {
      "inputs": [],
      "name": "RandomIpfsNft__TransferFailed",
      "type": "error"
    },
    {
      "anonymous": false,
      "inputs": [
        {
          "indexed": true,
          "internalType": "address",
          "name": "owner",
          "type": "address"
        },
        {
          "indexed": true,
          "internalType": "address",
          "name": "approved",
          "type": "address"
        },
        {
          "indexed": true,
          "internalType": "uint256",
          "name": "tokenId",
          "type": "uint256"
        }
      ],
      "name": "Approval",
      "type": "event"
    },
    {
      "anonymous": false,
      "inputs": [
        {
          "indexed": true,
          "internalType": "address",
          "name": "owner",
          "type": "address"
        },
        {
          "indexed": true,
          "internalType": "address",
          "name": "operator",
          "type": "address"
        },
        {
          "indexed": false,
          "internalType": "bool",
          "name": "approved",
          "type": "bool"
        }
      ],
      "name": "ApprovalForAll",
      "type": "event"
    },
    {
      "anonymous": false,
      "inputs": [
        {
          "indexed": false,
          "internalType": "enum RandomIpfsNft.Breed",
          "name": "dogBreed",
          "type": "uint8"
        },
        {
          "indexed": false,
          "internalType": "address",
          "name": "minter",
          "type": "address"
        }
      ],
      "name": "NftMinted",
      "type": "event"
    },
    {
      "anonymous": false,
      "inputs": [
        {
          "indexed": true,
          "internalType": "uint256",
          "name": "requestId",
          "type": "uint256"
        },
        {
          "indexed": false,
          "internalType": "address",
          "name": "requester",
          "type": "address"
        }
      ],
      "name": "NftRequested",
      "type": "event"
    },
    {
      "anonymous": false,
      "inputs": [
        {
          "indexed": true,
          "internalType": "address",
          "name": "previousOwner",
          "type": "address"
        },
        {
          "indexed": true,
          "internalType": "address",
          "name": "newOwner",
          "type": "address"
        }
      ],
      "name": "OwnershipTransferred",
      "type": "event"
    },
    {
      "anonymous": false,
      "inputs": [
        {
          "indexed": true,
          "internalType": "address",
          "name": "from",
          "type": "address"
        },
        {
          "indexed": true,
          "internalType": "address",
          "name": "to",
          "type": "address"
        },
        {
          "indexed": true,
          "internalType": "uint256",
          "name": "tokenId",
          "type": "uint256"
        }
      ],
      "name": "Transfer",
      "type": "event"
    },
    {
      "inputs": [
        {
          "internalType": "address",
          "name": "to",
          "type": "address"
        },
        {
          "internalType": "uint256",
          "name": "tokenId",
          "type": "uint256"
        }
      ],
      "name": "approve",
      "outputs": [],
      "stateMutability": "nonpayable",
      "type": "function"
    },
    {
      "inputs": [
        {
          "internalType": "address",
          "name": "owner",
          "type": "address"
        }
      ],
      "name": "balanceOf",
      "outputs": [
        {
          "internalType": "uint256",
          "name": "",
          "type": "uint256"
        }
      ],
      "stateMutability": "view",
      "type": "function"
    },
    {
      "inputs": [
        {
          "internalType": "uint256",
          "name": "tokenId",
          "type": "uint256"
        }
      ],
      "name": "getApproved",
      "outputs": [
        {
          "internalType": "address",
          "name": "",
          "type": "address"
        }
      ],
      "stateMutability": "view",
      "type": "function"
    },
    {
      "inputs": [
        {
          "internalType": "uint256",
          "name": "moddedRng",
          "type": "uint256"
        }
      ],
      "name": "getBreedFromModdedRng",
      "outputs": [
        {
          "internalType": "enum RandomIpfsNft.Breed",
          "name": "",
          "type": "uint8"
        }
      ],
      "stateMutability": "pure",
      "type": "function"
    },
    {
      "inputs": [],
      "name": "getChanceArray",
      "outputs": [
        {
          "internalType": "uint256[3]",
          "name": "",
          "type": "uint256[3]"
        }
      ],
      "stateMutability": "pure",
      "type": "function"
    },
    {
      "inputs": [
        {
          "internalType": "uint256",
          "name": "index",
          "type": "uint256"
        }
      ],
      "name": "getDogTokenUries",
      "outputs": [
        {
          "internalType": "string",
          "name": "",
          "type": "string"
        }
      ],
      "stateMutability": "view",
      "type": "function"
    },
    {
      "inputs": [],
      "name": "getMintFee",
      "outputs": [
        {
          "internalType": "uint256",
          "name": "",
          "type": "uint256"
        }
      ],
      "stateMutability": "view",
      "type": "function"
    },
    {
      "inputs": [],
      "name": "getTokenCounter",
      "outputs": [
        {
          "internalType": "uint256",
          "name": "",
          "type": "uint256"
        }
      ],
      "stateMutability": "view",
      "type": "function"
    },
    {
      "inputs": [
        {
          "internalType": "address",
          "name": "owner",
          "type": "address"
        },
        {
          "internalType": "address",
          "name": "operator",
          "type": "address"
        }
      ],
      "name": "isApprovedForAll",
      "outputs": [
        {
          "internalType": "bool",
          "name": "",
          "type": "bool"
        }
      ],
      "stateMutability": "view",
      "type": "function"
    },
    {
      "inputs": [],
      "name": "name",
      "outputs": [
        {
          "internalType": "string",
          "name": "",
          "type": "string"
        }
      ],
      "stateMutability": "view",
      "type": "function"
    },
    {
      "inputs": [],
      "name": "owner",
      "outputs": [
        {
          "internalType": "address",
          "name": "",
          "type": "address"
        }
      ],
      "stateMutability": "view",
      "type": "function"
    },
    {
      "inputs": [
        {
          "internalType": "uint256",
          "name": "tokenId",
          "type": "uint256"
        }
      ],
      "name": "ownerOf",
      "outputs": [
        {
          "internalType": "address",
          "name": "",
          "type": "address"
        }
      ],
      "stateMutability": "view",
      "type": "function"
    },
    {
      "inputs": [
        {
          "internalType": "uint256",
          "name": "requestId",
          "type": "uint256"
        },
        {
          "internalType": "uint256[]",
          "name": "randomWords",
          "type": "uint256[]"
        }
      ],
      "name": "rawFulfillRandomWords",
      "outputs": [],
      "stateMutability": "nonpayable",
      "type": "function"
    },
    {
      "inputs": [],
      "name": "renounceOwnership",
      "outputs": [],
      "stateMutability": "nonpayable",
      "type": "function"
    },
    {
      "inputs": [],
      "name": "requestNft",
      "outputs": [
        {
          "internalType": "uint256",
          "name": "requestId",
          "type": "uint256"
        }
      ],
      "stateMutability": "payable",
      "type": "function"
    },
    {
      "inputs": [
        {
          "internalType": "uint256",
          "name": "",
          "type": "uint256"
        }
      ],
      "name": "s_requestIdTosender",
      "outputs": [
        {
          "internalType": "address",
          "name": "",
          "type": "address"
        }
      ],
      "stateMutability": "view",
      "type": "function"
    },
    {
      "inputs": [],
      "name": "s_tokenCounter",
      "outputs": [
        {
          "internalType": "uint256",
          "name": "",
          "type": "uint256"
        }
      ],
      "stateMutability": "view",
      "type": "function"
    },
    {
      "inputs": [
        {
          "internalType": "address",
          "name": "from",
          "type": "address"
        },
        {
          "internalType": "address",
          "name": "to",
          "type": "address"
        },
        {
          "internalType": "uint256",
          "name": "tokenId",
          "type": "uint256"
        }
      ],
      "name": "safeTransferFrom",
      "outputs": [],
      "stateMutability": "nonpayable",
      "type": "function"
    },
    {
      "inputs": [
        {
          "internalType": "address",
          "name": "from",
          "type": "address"
        },
        {
          "internalType": "address",
          "name": "to",
          "type": "address"
        },
        {
          "internalType": "uint256",
          "name": "tokenId",
          "type": "uint256"
        },
        {
          "internalType": "bytes",
          "name": "data",
          "type": "bytes"
        }
      ],
      "name": "safeTransferFrom",
      "outputs": [],
      "stateMutability": "nonpayable",
      "type": "function"
    },
    {
      "inputs": [
        {
          "internalType": "address",
          "name": "operator",
          "type": "address"
        },
        {
          "internalType": "bool",
          "name": "approved",
          "type": "bool"
        }
      ],
      "name": "setApprovalForAll",
      "outputs": [],
      "stateMutability": "nonpayable",
      "type": "function"
    },
    {
      "inputs": [
        {
          "internalType": "bytes4",
          "name": "interfaceId",
          "type": "bytes4"
        }
      ],
      "name": "supportsInterface",
      "outputs": [
        {
          "internalType": "bool",
          "name": "",
          "type": "bool"
        }
      ],
      "stateMutability": "view",
      "type": "function"
    },
    {
      "inputs": [],
      "name": "symbol",
      "outputs": [
        {
          "internalType": "string",
          "name": "",
          "type": "string"
        }
      ],
      "stateMutability": "view",
      "type": "function"
    },
    {
      "inputs": [
        {
          "internalType": "uint256",
          "name": "tokenId",
          "type": "uint256"
        }
      ],
      "name": "tokenURI",
      "outputs": [
        {
          "internalType": "string",
          "name": "",
          "type": "string"
        }
      ],
      "stateMutability": "view",
      "type": "function"
    },
    {
      "inputs": [
        {
          "internalType": "address",
          "name": "from",
          "type": "address"
        },
        {
          "internalType": "address",
          "name": "to",
          "type": "address"
        },
        {
          "internalType": "uint256",
          "name": "tokenId",
          "type": "uint256"
        }
      ],
      "name": "transferFrom",
      "outputs": [],
      "stateMutability": "nonpayable",
      "type": "function"
    },
    {
      "inputs": [
        {
          "internalType": "address",
          "name": "newOwner",
          "type": "address"
        }
      ],
      "name": "transferOwnership",
      "outputs": [],
      "stateMutability": "nonpayable",
      "type": "function"
    },
    {
      "inputs": [],
      "name": "withdraw",
      "outputs": [],
      "stateMutability": "nonpayable",
      "type": "function"
    }
  ],
  "transactionHash": "0x542482384a89d48419a8cb7790de370b042bf4c8a652e1e487175a75c6d95aab",
  "args": [
    "0x2Ca8E0C643bDe4C2E08ab1fA0da3401AdAD7734D",
    "1962",
    "0x79d3d8832d904592c0bf9818b621522c988bb8b0c05cdc3b15aea1b6e8db0c15",
    "500000",
    "10000000000000000",
    [
      "ipfs://QmatVUK3cCKnzzGCoSHR1cfpZSsogJNswwzreCGBWkpYQC",
      "ipfs://QmcXeDtRhi4UmmTm8yqc5DrzKhAypSfymSJ6oMGgy8zZdv",
      "ipfs://QmT9dJD9e9qaSjaZgQ3qtHzPLbNEbtWkDgQ9gRBLxP7PKp"
    ]
  ],
  "numDeployments": 1,
  "solcInputHash": "0f54fb7807c68f3220cc4ed460a70d02",
  "bytecode": "0x6101406040523480156200001257600080fd5b506040516200432a3803806200432a8339818101604052810190620000389190620005d7565b6040518060400160405280600f81526020017f52616e646f6d2049504653204e667400000000000000000000000000000000008152506040518060400160405280600381526020017f52494e0000000000000000000000000000000000000000000000000000000000815250878073ffffffffffffffffffffffffffffffffffffffff1660808173ffffffffffffffffffffffffffffffffffffffff1660601b81525050508160009080519060200190620000f59291906200029e565b5080600190805190602001906200010e9291906200029e565b5050506200013162000125620001d060201b60201c565b620001d860201b60201c565b8573ffffffffffffffffffffffffffffffffffffffff1660a08173ffffffffffffffffffffffffffffffffffffffff1660601b815250508467ffffffffffffffff1660c08167ffffffffffffffff1660c01b815250508360e081815250508263ffffffff166101008163ffffffff1660e01b8152505080600a906003620001ba9291906200032f565b5081610120818152505050505050505062000932565b600033905090565b6000600760009054906101000a900473ffffffffffffffffffffffffffffffffffffffff16905081600760006101000a81548173ffffffffffffffffffffffffffffffffffffffff021916908373ffffffffffffffffffffffffffffffffffffffff1602179055508173ffffffffffffffffffffffffffffffffffffffff168173ffffffffffffffffffffffffffffffffffffffff167f8be0079c531659141344cd1fd0a4f28419497f9722a3daafe3b4186f6b6457e060405160405180910390a35050565b828054620002ac90620007bc565b90600052602060002090601f016020900481019282620002d057600085556200031c565b82601f10620002eb57805160ff19168380011785556200031c565b828001600101855582156200031c579182015b828111156200031b578251825591602001919060010190620002fe565b5b5090506200032b919062000396565b5090565b82805482825590600052602060002090810192821562000383579160200282015b8281111562000382578251829080519060200190620003719291906200029e565b509160200191906001019062000350565b5b509050620003929190620003b5565b5090565b5b80821115620003b157600081600090555060010162000397565b5090565b5b80821115620003d95760008181620003cf9190620003dd565b50600101620003b6565b5090565b508054620003eb90620007bc565b6000825580601f10620003ff575062000420565b601f0160209004906000526020600020908101906200041f919062000396565b5b50565b60006200043a6200043484620006bb565b62000692565b905080828560208602820111156200045757620004566200088b565b5b60005b85811015620004ac57815167ffffffffffffffff81111562000481576200048062000886565b5b8086016200049089826200055f565b855260208501945060208401935050506001810190506200045a565b5050509392505050565b6000620004cd620004c784620006e4565b62000692565b905082815260208101848484011115620004ec57620004eb62000890565b5b620004f984828562000786565b509392505050565b6000815190506200051281620008b0565b92915050565b600082601f83011262000530576200052f62000886565b5b60036200053f84828562000423565b91505092915050565b6000815190506200055981620008ca565b92915050565b600082601f83011262000577576200057662000886565b5b815162000589848260208601620004b6565b91505092915050565b600081519050620005a381620008e4565b92915050565b600081519050620005ba81620008fe565b92915050565b600081519050620005d18162000918565b92915050565b60008060008060008060c08789031215620005f757620005f66200089a565b5b60006200060789828a0162000501565b96505060206200061a89828a01620005c0565b95505060406200062d89828a0162000548565b94505060606200064089828a01620005a9565b93505060806200065389828a0162000592565b92505060a087015167ffffffffffffffff81111562000677576200067662000895565b5b6200068589828a0162000518565b9150509295509295509295565b60006200069e620006b1565b9050620006ac8282620007f2565b919050565b6000604051905090565b600067ffffffffffffffff821115620006d957620006d862000857565b5b602082029050919050565b600067ffffffffffffffff82111562000702576200070162000857565b5b6200070d826200089f565b9050602081019050919050565b6000620007278262000738565b9050919050565b6000819050919050565b600073ffffffffffffffffffffffffffffffffffffffff82169050919050565b6000819050919050565b600063ffffffff82169050919050565b600067ffffffffffffffff82169050919050565b60005b83811015620007a657808201518184015260208101905062000789565b83811115620007b6576000848401525b50505050565b60006002820490506001821680620007d557607f821691505b60208210811415620007ec57620007eb62000828565b5b50919050565b620007fd826200089f565b810181811067ffffffffffffffff821117156200081f576200081e62000857565b5b80604052505050565b7f4e487b7100000000000000000000000000000000000000000000000000000000600052602260045260246000fd5b7f4e487b7100000000000000000000000000000000000000000000000000000000600052604160045260246000fd5b600080fd5b600080fd5b600080fd5b600080fd5b600080fd5b6000601f19601f8301169050919050565b620008bb816200071a565b8114620008c757600080fd5b50565b620008d5816200072e565b8114620008e157600080fd5b50565b620008ef8162000758565b8114620008fb57600080fd5b50565b620009098162000762565b81146200091557600080fd5b50565b620009238162000772565b81146200092f57600080fd5b50565b60805160601c60a05160601c60c05160c01c60e0516101005160e01c6101205161398e6200099c60003960008181610cf90152610ed501526000610faf01526000610f6b01526000610f8c01526000610f2f01526000818161095001526109a4015261398e6000f3fe6080604052600436106101815760003560e01c806370a08231116100d1578063a51cccf31161008a578063c87b56dd11610064578063c87b56dd14610563578063e5ace3ba146105a0578063e985e9c5146105dd578063f2fde38b1461061a57610181565b8063a51cccf3146104df578063aa1524911461051c578063b88d4fde1461053a57610181565b806370a08231146103e1578063715018a61461041e5780637a5caab3146104355780638da5cb5b1461046057806395d89b411461048b578063a22cb465146104b657610181565b80631fe543e31161013e57806342842e0e1161011857806342842e0e146103255780635dacf5f41461034e5780636352211e146103795780636e02007d146103b657610181565b80631fe543e3146102bc57806323b872dd146102e55780633ccfd60b1461030e57610181565b806301ffc9a71461018657806306fdde03146101c3578063081812fc146101ee578063095ea7b31461022b5780630b21a83b146102545780631f48ad291461027f575b600080fd5b34801561019257600080fd5b506101ad60048036038101906101a89190612818565b610643565b6040516101ba9190612db2565b60405180910390f35b3480156101cf57600080fd5b506101d8610725565b6040516101e59190612e64565b60405180910390f35b3480156101fa57600080fd5b5061021560048036038101906102109190612872565b6107b7565b6040516102229190612d07565b60405180910390f35b34801561023757600080fd5b50610252600480360381019061024d91906127d8565b6107fd565b005b34801561026057600080fd5b50610269610915565b6040516102769190613046565b60405180910390f35b34801561028b57600080fd5b506102a660048036038101906102a19190612872565b61091b565b6040516102b39190612d07565b60405180910390f35b3480156102c857600080fd5b506102e360048036038101906102de91906128cc565b61094e565b005b3480156102f157600080fd5b5061030c600480360381019061030791906126c2565b610a0e565b005b34801561031a57600080fd5b50610323610a6e565b005b34801561033157600080fd5b5061034c600480360381019061034791906126c2565b610b22565b005b34801561035a57600080fd5b50610363610b42565b6040516103709190612d97565b60405180910390f35b34801561038557600080fd5b506103a0600480360381019061039b9190612872565b610b6d565b6040516103ad9190612d07565b60405180910390f35b3480156103c257600080fd5b506103cb610c1f565b6040516103d89190613046565b60405180910390f35b3480156103ed57600080fd5b5061040860048036038101906104039190612655565b610c29565b6040516104159190613046565b60405180910390f35b34801561042a57600080fd5b50610433610ce1565b005b34801561044157600080fd5b5061044a610cf5565b6040516104579190613046565b60405180910390f35b34801561046c57600080fd5b50610475610d1d565b6040516104829190612d07565b60405180910390f35b34801561049757600080fd5b506104a0610d47565b6040516104ad9190612e64565b60405180910390f35b3480156104c257600080fd5b506104dd60048036038101906104d89190612798565b610dd9565b005b3480156104eb57600080fd5b5061050660048036038101906105019190612872565b610def565b6040516105139190612e20565b60405180910390f35b610524610ed1565b6040516105319190613046565b60405180910390f35b34801561054657600080fd5b50610561600480360381019061055c9190612715565b6110d1565b005b34801561056f57600080fd5b5061058a60048036038101906105859190612872565b611133565b6040516105979190612e64565b60405180910390f35b3480156105ac57600080fd5b506105c760048036038101906105c29190612872565b611246565b6040516105d49190612e64565b60405180910390f35b3480156105e957600080fd5b5061060460048036038101906105ff9190612682565b6112f6565b6040516106119190612db2565b60405180910390f35b34801561062657600080fd5b50610641600480360381019061063c9190612655565b61138a565b005b60007f80ac58cd000000000000000000000000000000000000000000000000000000007bffffffffffffffffffffffffffffffffffffffffffffffffffffffff1916827bffffffffffffffffffffffffffffffffffffffffffffffffffffffff1916148061070e57507f5b5e139f000000000000000000000000000000000000000000000000000000007bffffffffffffffffffffffffffffffffffffffffffffffffffffffff1916827bffffffffffffffffffffffffffffffffffffffffffffffffffffffff1916145b8061071e575061071d8261140e565b5b9050919050565b60606000805461073490613330565b80601f016020809104026020016040519081016040528092919081815260200182805461076090613330565b80156107ad5780601f10610782576101008083540402835291602001916107ad565b820191906000526020600020905b81548152906001019060200180831161079057829003601f168201915b5050505050905090565b60006107c282611478565b6004600083815260200190815260200160002060009054906101000a900473ffffffffffffffffffffffffffffffffffffffff169050919050565b600061080882610b6d565b90508073ffffffffffffffffffffffffffffffffffffffff168373ffffffffffffffffffffffffffffffffffffffff161415610879576040517f08c379a000000000000000000000000000000000000000000000000000000000815260040161087090613006565b60405180910390fd5b8073ffffffffffffffffffffffffffffffffffffffff166108986114c3565b73ffffffffffffffffffffffffffffffffffffffff1614806108c757506108c6816108c16114c3565b6112f6565b5b610906576040517f08c379a00000000000000000000000000000000000000000000000000000000081526004016108fd90612f86565b60405180910390fd5b61091083836114cb565b505050565b60095481565b60086020528060005260406000206000915054906101000a900473ffffffffffffffffffffffffffffffffffffffff1681565b7f000000000000000000000000000000000000000000000000000000000000000073ffffffffffffffffffffffffffffffffffffffff163373ffffffffffffffffffffffffffffffffffffffff1614610a0057337f00000000000000000000000000000000000000000000000000000000000000006040517f1cf993f40000000000000000000000000000000000000000000000000000000081526004016109f7929190612d22565b60405180910390fd5b610a0a8282611584565b5050565b610a1f610a196114c3565b82611724565b610a5e576040517f08c379a0000000000000000000000000000000000000000000000000000000008152600401610a5590613026565b60405180910390fd5b610a698383836117b9565b505050565b610a76611a20565b600047905060003373ffffffffffffffffffffffffffffffffffffffff1682604051610aa190612cf2565b60006040518083038185875af1925050503d8060008114610ade576040519150601f19603f3d011682016040523d82523d6000602084013e610ae3565b606091505b5050905080610b1e576040517fca7e25b700000000000000000000000000000000000000000000000000000000815260040160405180910390fd5b5050565b610b3d838383604051806020016040528060008152506110d1565b505050565b610b4a612404565b6040518060600160405280600a8152602001601e81526020016064815250905090565b6000806002600084815260200190815260200160002060009054906101000a900473ffffffffffffffffffffffffffffffffffffffff169050600073ffffffffffffffffffffffffffffffffffffffff168173ffffffffffffffffffffffffffffffffffffffff161415610c16576040517f08c379a0000000000000000000000000000000000000000000000000000000008152600401610c0d90612fe6565b60405180910390fd5b80915050919050565b6000600954905090565b60008073ffffffffffffffffffffffffffffffffffffffff168273ffffffffffffffffffffffffffffffffffffffff161415610c9a576040517f08c379a0000000000000000000000000000000000000000000000000000000008152600401610c9190612f46565b60405180910390fd5b600360008373ffffffffffffffffffffffffffffffffffffffff1673ffffffffffffffffffffffffffffffffffffffff168152602001908152602001600020549050919050565b610ce9611a20565b610cf36000611a9e565b565b60007f0000000000000000000000000000000000000000000000000000000000000000905090565b6000600760009054906101000a900473ffffffffffffffffffffffffffffffffffffffff16905090565b606060018054610d5690613330565b80601f0160208091040260200160405190810160405280929190818152602001828054610d8290613330565b8015610dcf5780601f10610da457610100808354040283529160200191610dcf565b820191906000526020600020905b815481529060010190602001808311610db257829003601f168201915b5050505050905090565b610deb610de46114c3565b8383611b64565b5050565b600080600090506000610e00610b42565b905060005b6003811015610e9957828510158015610e3f5750818160038110610e2c57610e2b6134c9565b5b602002015183610e3c919061315e565b85105b15610e6157806002811115610e5757610e5661346b565b5b9350505050610ecc565b818160038110610e7457610e736134c9565b5b602002015183610e84919061315e565b92508080610e9190613393565b915050610e05565b506040517f12806c9d00000000000000000000000000000000000000000000000000000000815260040160405180910390fd5b919050565b60007f0000000000000000000000000000000000000000000000000000000000000000341015610f2d576040517fb90f491000000000000000000000000000000000000000000000000000000000815260040160405180910390fd5b7f000000000000000000000000000000000000000000000000000000000000000073ffffffffffffffffffffffffffffffffffffffff16635d3b1d307f00000000000000000000000000000000000000000000000000000000000000007f000000000000000000000000000000000000000000000000000000000000000060037f000000000000000000000000000000000000000000000000000000000000000060016040518663ffffffff1660e01b8152600401610ff0959493929190612dcd565b602060405180830381600087803b15801561100a57600080fd5b505af115801561101e573d6000803e3d6000fd5b505050506040513d601f19601f82011682018060405250810190611042919061289f565b9050336008600083815260200190815260200160002060006101000a81548173ffffffffffffffffffffffffffffffffffffffff021916908373ffffffffffffffffffffffffffffffffffffffff160217905550807ff873236e6cc0ecc5be1a9a35c95ee5b8d1ac4cc7bfef0cc5060391d6cc98e26b336040516110c69190612d07565b60405180910390a290565b6110e26110dc6114c3565b83611724565b611121576040517f08c379a000000000000000000000000000000000000000000000000000000000815260040161111890613026565b60405180910390fd5b61112d84848484611cd1565b50505050565b606061113e82611478565b600060066000848152602001908152602001600020805461115e90613330565b80601f016020809104026020016040519081016040528092919081815260200182805461118a90613330565b80156111d75780601f106111ac576101008083540402835291602001916111d7565b820191906000526020600020905b8154815290600101906020018083116111ba57829003601f168201915b5050505050905060006111e8611d2d565b90506000815114156111fe578192505050611241565b60008251111561123357808260405160200161121b929190612cce565b60405160208183030381529060405292505050611241565b61123c84611d44565b925050505b919050565b6060600a828154811061125c5761125b6134c9565b5b90600052602060002001805461127190613330565b80601f016020809104026020016040519081016040528092919081815260200182805461129d90613330565b80156112ea5780601f106112bf576101008083540402835291602001916112ea565b820191906000526020600020905b8154815290600101906020018083116112cd57829003601f168201915b50505050509050919050565b6000600560008473ffffffffffffffffffffffffffffffffffffffff1673ffffffffffffffffffffffffffffffffffffffff16815260200190815260200160002060008373ffffffffffffffffffffffffffffffffffffffff1673ffffffffffffffffffffffffffffffffffffffff16815260200190815260200160002060009054906101000a900460ff16905092915050565b611392611a20565b600073ffffffffffffffffffffffffffffffffffffffff168173ffffffffffffffffffffffffffffffffffffffff161415611402576040517f08c379a00000000000000000000000000000000000000000000000000000000081526004016113f990612ea6565b60405180910390fd5b61140b81611a9e565b50565b60007f01ffc9a7000000000000000000000000000000000000000000000000000000007bffffffffffffffffffffffffffffffffffffffffffffffffffffffff1916827bffffffffffffffffffffffffffffffffffffffffffffffffffffffff1916149050919050565b61148181611dac565b6114c0576040517f08c379a00000000000000000000000000000000000000000000000000000000081526004016114b790612fe6565b60405180910390fd5b50565b600033905090565b816004600083815260200190815260200160002060006101000a81548173ffffffffffffffffffffffffffffffffffffffff021916908373ffffffffffffffffffffffffffffffffffffffff160217905550808273ffffffffffffffffffffffffffffffffffffffff1661153e83610b6d565b73ffffffffffffffffffffffffffffffffffffffff167f8c5be1e5ebec7d5bd14f71427d1e84f3dd0314c0f7b2291e5b200ac8c7c3b92560405160405180910390a45050565b60006008600084815260200190815260200160002060009054906101000a900473ffffffffffffffffffffffffffffffffffffffff1690506000600954905060006064846000815181106115db576115da6134c9565b5b60200260200101516115ed91906133dc565b905060006115fa82610def565b905060095460096000828254611610919061315e565b925050819055506116218484611e18565b6116e383600a83600281111561163a5761163961346b565b5b8154811061164b5761164a6134c9565b5b90600052602060002001805461166090613330565b80601f016020809104026020016040519081016040528092919081815260200182805461168c90613330565b80156116d95780601f106116ae576101008083540402835291602001916116d9565b820191906000526020600020905b8154815290600101906020018083116116bc57829003601f168201915b5050505050611e36565b7f8a269f26b688e110e9cbd887d163dab35cae678fa353a0292de532c0cac1ecdc8185604051611714929190612e3b565b60405180910390a1505050505050565b60008061173083610b6d565b90508073ffffffffffffffffffffffffffffffffffffffff168473ffffffffffffffffffffffffffffffffffffffff161480611772575061177181856112f6565b5b806117b057508373ffffffffffffffffffffffffffffffffffffffff16611798846107b7565b73ffffffffffffffffffffffffffffffffffffffff16145b91505092915050565b8273ffffffffffffffffffffffffffffffffffffffff166117d982610b6d565b73ffffffffffffffffffffffffffffffffffffffff161461182f576040517f08c379a000000000000000000000000000000000000000000000000000000000815260040161182690612ec6565b60405180910390fd5b600073ffffffffffffffffffffffffffffffffffffffff168273ffffffffffffffffffffffffffffffffffffffff16141561189f576040517f08c379a000000000000000000000000000000000000000000000000000000000815260040161189690612f06565b60405180910390fd5b6118aa838383611eaa565b6118b56000826114cb565b6001600360008573ffffffffffffffffffffffffffffffffffffffff1673ffffffffffffffffffffffffffffffffffffffff168152602001908152602001600020600082825461190591906131e5565b925050819055506001600360008473ffffffffffffffffffffffffffffffffffffffff1673ffffffffffffffffffffffffffffffffffffffff168152602001908152602001600020600082825461195c919061315e565b92505081905550816002600083815260200190815260200160002060006101000a81548173ffffffffffffffffffffffffffffffffffffffff021916908373ffffffffffffffffffffffffffffffffffffffff160217905550808273ffffffffffffffffffffffffffffffffffffffff168473ffffffffffffffffffffffffffffffffffffffff167fddf252ad1be2c89b69c2b068fc378daa952ba7f163c4a11628f55a4df523b3ef60405160405180910390a4611a1b838383611eaf565b505050565b611a286114c3565b73ffffffffffffffffffffffffffffffffffffffff16611a46610d1d565b73ffffffffffffffffffffffffffffffffffffffff1614611a9c576040517f08c379a0000000000000000000000000000000000000000000000000000000008152600401611a9390612fc6565b60405180910390fd5b565b6000600760009054906101000a900473ffffffffffffffffffffffffffffffffffffffff16905081600760006101000a81548173ffffffffffffffffffffffffffffffffffffffff021916908373ffffffffffffffffffffffffffffffffffffffff1602179055508173ffffffffffffffffffffffffffffffffffffffff168173ffffffffffffffffffffffffffffffffffffffff167f8be0079c531659141344cd1fd0a4f28419497f9722a3daafe3b4186f6b6457e060405160405180910390a35050565b8173ffffffffffffffffffffffffffffffffffffffff168373ffffffffffffffffffffffffffffffffffffffff161415611bd3576040517f08c379a0000000000000000000000000000000000000000000000000000000008152600401611bca90612f26565b60405180910390fd5b80600560008573ffffffffffffffffffffffffffffffffffffffff1673ffffffffffffffffffffffffffffffffffffffff16815260200190815260200160002060008473ffffffffffffffffffffffffffffffffffffffff1673ffffffffffffffffffffffffffffffffffffffff16815260200190815260200160002060006101000a81548160ff0219169083151502179055508173ffffffffffffffffffffffffffffffffffffffff168373ffffffffffffffffffffffffffffffffffffffff167f17307eab39ab6107e8899845ad3d59bd9653f200f220920489ca2b5937696c3183604051611cc49190612db2565b60405180910390a3505050565b611cdc8484846117b9565b611ce884848484611eb4565b611d27576040517f08c379a0000000000000000000000000000000000000000000000000000000008152600401611d1e90612e86565b60405180910390fd5b50505050565b606060405180602001604052806000815250905090565b6060611d4f82611478565b6000611d59611d2d565b90506000815111611d795760405180602001604052806000815250611da4565b80611d838461204b565b604051602001611d94929190612cce565b6040516020818303038152906040525b915050919050565b60008073ffffffffffffffffffffffffffffffffffffffff166002600084815260200190815260200160002060009054906101000a900473ffffffffffffffffffffffffffffffffffffffff1673ffffffffffffffffffffffffffffffffffffffff1614159050919050565b611e328282604051806020016040528060008152506121ac565b5050565b611e3f82611dac565b611e7e576040517f08c379a0000000000000000000000000000000000000000000000000000000008152600401611e7590612f66565b60405180910390fd5b80600660008481526020019081526020016000209080519060200190611ea5929190612426565b505050565b505050565b505050565b6000611ed58473ffffffffffffffffffffffffffffffffffffffff16612207565b1561203e578373ffffffffffffffffffffffffffffffffffffffff1663150b7a02611efe6114c3565b8786866040518563ffffffff1660e01b8152600401611f209493929190612d4b565b602060405180830381600087803b158015611f3a57600080fd5b505af1925050508015611f6b57506040513d601f19601f82011682018060405250810190611f689190612845565b60015b611fee573d8060008114611f9b576040519150601f19603f3d011682016040523d82523d6000602084013e611fa0565b606091505b50600081511415611fe6576040517f08c379a0000000000000000000000000000000000000000000000000000000008152600401611fdd90612e86565b60405180910390fd5b805181602001fd5b63150b7a0260e01b7bffffffffffffffffffffffffffffffffffffffffffffffffffffffff1916817bffffffffffffffffffffffffffffffffffffffffffffffffffffffff191614915050612043565b600190505b949350505050565b60606000821415612093576040518060400160405280600181526020017f300000000000000000000000000000000000000000000000000000000000000081525090506121a7565b600082905060005b600082146120c55780806120ae90613393565b915050600a826120be91906131b4565b915061209b565b60008167ffffffffffffffff8111156120e1576120e06134f8565b5b6040519080825280601f01601f1916602001820160405280156121135781602001600182028036833780820191505090505b5090505b600085146121a05760018261212c91906131e5565b9150600a8561213b91906133dc565b6030612147919061315e565b60f81b81838151811061215d5761215c6134c9565b5b60200101907effffffffffffffffffffffffffffffffffffffffffffffffffffffffffffff1916908160001a905350600a8561219991906131b4565b9450612117565b8093505050505b919050565b6121b6838361222a565b6121c36000848484611eb4565b612202576040517f08c379a00000000000000000000000000000000000000000000000000000000081526004016121f990612e86565b60405180910390fd5b505050565b6000808273ffffffffffffffffffffffffffffffffffffffff163b119050919050565b600073ffffffffffffffffffffffffffffffffffffffff168273ffffffffffffffffffffffffffffffffffffffff16141561229a576040517f08c379a000000000000000000000000000000000000000000000000000000000815260040161229190612fa6565b60405180910390fd5b6122a381611dac565b156122e3576040517f08c379a00000000000000000000000000000000000000000000000000000000081526004016122da90612ee6565b60405180910390fd5b6122ef60008383611eaa565b6001600360008473ffffffffffffffffffffffffffffffffffffffff1673ffffffffffffffffffffffffffffffffffffffff168152602001908152602001600020600082825461233f919061315e565b92505081905550816002600083815260200190815260200160002060006101000a81548173ffffffffffffffffffffffffffffffffffffffff021916908373ffffffffffffffffffffffffffffffffffffffff160217905550808273ffffffffffffffffffffffffffffffffffffffff16600073ffffffffffffffffffffffffffffffffffffffff167fddf252ad1be2c89b69c2b068fc378daa952ba7f163c4a11628f55a4df523b3ef60405160405180910390a461240060008383611eaf565b5050565b6040518060600160405280600390602082028036833780820191505090505090565b82805461243290613330565b90600052602060002090601f016020900481019282612454576000855561249b565b82601f1061246d57805160ff191683800117855561249b565b8280016001018555821561249b579182015b8281111561249a57825182559160200191906001019061247f565b5b5090506124a891906124ac565b5090565b5b808211156124c55760008160009055506001016124ad565b5090565b60006124dc6124d784613086565b613061565b905080838252602082019050828560208602820111156124ff576124fe61352c565b5b60005b8581101561252f5781612515888261262b565b845260208401935060208301925050600181019050612502565b5050509392505050565b600061254c612547846130b2565b613061565b90508281526020810184848401111561256857612567613531565b5b6125738482856132ee565b509392505050565b60008135905061258a816138fc565b92915050565b600082601f8301126125a5576125a4613527565b5b81356125b58482602086016124c9565b91505092915050565b6000813590506125cd81613913565b92915050565b6000813590506125e28161392a565b92915050565b6000815190506125f78161392a565b92915050565b600082601f83011261261257612611613527565b5b8135612622848260208601612539565b91505092915050565b60008135905061263a81613941565b92915050565b60008151905061264f81613941565b92915050565b60006020828403121561266b5761266a61353b565b5b60006126798482850161257b565b91505092915050565b600080604083850312156126995761269861353b565b5b60006126a78582860161257b565b92505060206126b88582860161257b565b9150509250929050565b6000806000606084860312156126db576126da61353b565b5b60006126e98682870161257b565b93505060206126fa8682870161257b565b925050604061270b8682870161262b565b9150509250925092565b6000806000806080858703121561272f5761272e61353b565b5b600061273d8782880161257b565b945050602061274e8782880161257b565b935050604061275f8782880161262b565b925050606085013567ffffffffffffffff8111156127805761277f613536565b5b61278c878288016125fd565b91505092959194509250565b600080604083850312156127af576127ae61353b565b5b60006127bd8582860161257b565b92505060206127ce858286016125be565b9150509250929050565b600080604083850312156127ef576127ee61353b565b5b60006127fd8582860161257b565b925050602061280e8582860161262b565b9150509250929050565b60006020828403121561282e5761282d61353b565b5b600061283c848285016125d3565b91505092915050565b60006020828403121561285b5761285a61353b565b5b6000612869848285016125e8565b91505092915050565b6000602082840312156128885761288761353b565b5b60006128968482850161262b565b91505092915050565b6000602082840312156128b5576128b461353b565b5b60006128c384828501612640565b91505092915050565b600080604083850312156128e3576128e261353b565b5b60006128f18582860161262b565b925050602083013567ffffffffffffffff81111561291257612911613536565b5b61291e85828601612590565b9150509250929050565b60006129348383612c92565b60208301905092915050565b61294981613219565b82525050565b612958816130ed565b612962818461311b565b925061296d826130e3565b8060005b8381101561299e5781516129858782612928565b96506129908361310e565b925050600181019050612971565b505050505050565b6129af8161322b565b82525050565b6129be81613237565b82525050565b60006129cf826130f8565b6129d98185613126565b93506129e98185602086016132fd565b6129f281613540565b840191505092915050565b612a06816132dc565b82525050565b6000612a1782613103565b612a218185613142565b9350612a318185602086016132fd565b612a3a81613540565b840191505092915050565b6000612a5082613103565b612a5a8185613153565b9350612a6a8185602086016132fd565b80840191505092915050565b6000612a83603283613142565b9150612a8e82613551565b604082019050919050565b6000612aa6602683613142565b9150612ab1826135a0565b604082019050919050565b6000612ac9602583613142565b9150612ad4826135ef565b604082019050919050565b6000612aec601c83613142565b9150612af78261363e565b602082019050919050565b6000612b0f602483613142565b9150612b1a82613667565b604082019050919050565b6000612b32601983613142565b9150612b3d826136b6565b602082019050919050565b6000612b55602983613142565b9150612b60826136df565b604082019050919050565b6000612b78602e83613142565b9150612b838261372e565b604082019050919050565b6000612b9b603e83613142565b9150612ba68261377d565b604082019050919050565b6000612bbe602083613142565b9150612bc9826137cc565b602082019050919050565b6000612be1602083613142565b9150612bec826137f5565b602082019050919050565b6000612c04601883613142565b9150612c0f8261381e565b602082019050919050565b6000612c27602183613142565b9150612c3282613847565b604082019050919050565b6000612c4a600083613137565b9150612c5582613896565b600082019050919050565b6000612c6d602e83613142565b9150612c7882613899565b604082019050919050565b612c8c81613280565b82525050565b612c9b816132ae565b82525050565b612caa816132ae565b82525050565b612cb9816132b8565b82525050565b612cc8816132c8565b82525050565b6000612cda8285612a45565b9150612ce68284612a45565b91508190509392505050565b6000612cfd82612c3d565b9150819050919050565b6000602082019050612d1c6000830184612940565b92915050565b6000604082019050612d376000830185612940565b612d446020830184612940565b9392505050565b6000608082019050612d606000830187612940565b612d6d6020830186612940565b612d7a6040830185612ca1565b8181036060830152612d8c81846129c4565b905095945050505050565b6000606082019050612dac600083018461294f565b92915050565b6000602082019050612dc760008301846129a6565b92915050565b600060a082019050612de260008301886129b5565b612def6020830187612cbf565b612dfc6040830186612c83565b612e096060830185612cb0565b612e166080830184612cb0565b9695505050505050565b6000602082019050612e3560008301846129fd565b92915050565b6000604082019050612e5060008301856129fd565b612e5d6020830184612940565b9392505050565b60006020820190508181036000830152612e7e8184612a0c565b905092915050565b60006020820190508181036000830152612e9f81612a76565b9050919050565b60006020820190508181036000830152612ebf81612a99565b9050919050565b60006020820190508181036000830152612edf81612abc565b9050919050565b60006020820190508181036000830152612eff81612adf565b9050919050565b60006020820190508181036000830152612f1f81612b02565b9050919050565b60006020820190508181036000830152612f3f81612b25565b9050919050565b60006020820190508181036000830152612f5f81612b48565b9050919050565b60006020820190508181036000830152612f7f81612b6b565b9050919050565b60006020820190508181036000830152612f9f81612b8e565b9050919050565b60006020820190508181036000830152612fbf81612bb1565b9050919050565b60006020820190508181036000830152612fdf81612bd4565b9050919050565b60006020820190508181036000830152612fff81612bf7565b9050919050565b6000602082019050818103600083015261301f81612c1a565b9050919050565b6000602082019050818103600083015261303f81612c60565b9050919050565b600060208201905061305b6000830184612ca1565b92915050565b600061306b61307c565b90506130778282613362565b919050565b6000604051905090565b600067ffffffffffffffff8211156130a1576130a06134f8565b5b602082029050602081019050919050565b600067ffffffffffffffff8211156130cd576130cc6134f8565b5b6130d682613540565b9050602081019050919050565b6000819050919050565b600060039050919050565b600081519050919050565b600081519050919050565b6000602082019050919050565b600081905092915050565b600082825260208201905092915050565b600081905092915050565b600082825260208201905092915050565b600081905092915050565b6000613169826132ae565b9150613174836132ae565b9250827fffffffffffffffffffffffffffffffffffffffffffffffffffffffffffffffff038211156131a9576131a861340d565b5b828201905092915050565b60006131bf826132ae565b91506131ca836132ae565b9250826131da576131d961343c565b5b828204905092915050565b60006131f0826132ae565b91506131fb836132ae565b92508282101561320e5761320d61340d565b5b828203905092915050565b60006132248261328e565b9050919050565b60008115159050919050565b6000819050919050565b60007fffffffff0000000000000000000000000000000000000000000000000000000082169050919050565b600081905061327b826138e8565b919050565b600061ffff82169050919050565b600073ffffffffffffffffffffffffffffffffffffffff82169050919050565b6000819050919050565b600063ffffffff82169050919050565b600067ffffffffffffffff82169050919050565b60006132e78261326d565b9050919050565b82818337600083830152505050565b60005b8381101561331b578082015181840152602081019050613300565b8381111561332a576000848401525b50505050565b6000600282049050600182168061334857607f821691505b6020821081141561335c5761335b61349a565b5b50919050565b61336b82613540565b810181811067ffffffffffffffff8211171561338a576133896134f8565b5b80604052505050565b600061339e826132ae565b91507fffffffffffffffffffffffffffffffffffffffffffffffffffffffffffffffff8214156133d1576133d061340d565b5b600182019050919050565b60006133e7826132ae565b91506133f2836132ae565b9250826134025761340161343c565b5b828206905092915050565b7f4e487b7100000000000000000000000000000000000000000000000000000000600052601160045260246000fd5b7f4e487b7100000000000000000000000000000000000000000000000000000000600052601260045260246000fd5b7f4e487b7100000000000000000000000000000000000000000000000000000000600052602160045260246000fd5b7f4e487b7100000000000000000000000000000000000000000000000000000000600052602260045260246000fd5b7f4e487b7100000000000000000000000000000000000000000000000000000000600052603260045260246000fd5b7f4e487b7100000000000000000000000000000000000000000000000000000000600052604160045260246000fd5b600080fd5b600080fd5b600080fd5b600080fd5b600080fd5b6000601f19601f8301169050919050565b7f4552433732313a207472616e7366657220746f206e6f6e20455243373231526560008201527f63656976657220696d706c656d656e7465720000000000000000000000000000602082015250565b7f4f776e61626c653a206e6577206f776e657220697320746865207a65726f206160008201527f6464726573730000000000000000000000000000000000000000000000000000602082015250565b7f4552433732313a207472616e736665722066726f6d20696e636f72726563742060008201527f6f776e6572000000000000000000000000000000000000000000000000000000602082015250565b7f4552433732313a20746f6b656e20616c7265616479206d696e74656400000000600082015250565b7f4552433732313a207472616e7366657220746f20746865207a65726f2061646460008201527f7265737300000000000000000000000000000000000000000000000000000000602082015250565b7f4552433732313a20617070726f766520746f2063616c6c657200000000000000600082015250565b7f4552433732313a2061646472657373207a65726f206973206e6f74206120766160008201527f6c6964206f776e65720000000000000000000000000000000000000000000000602082015250565b7f45524337323155524953746f726167653a2055524920736574206f66206e6f6e60008201527f6578697374656e7420746f6b656e000000000000000000000000000000000000602082015250565b7f4552433732313a20617070726f76652063616c6c6572206973206e6f7420746f60008201527f6b656e206f776e6572206e6f7220617070726f76656420666f7220616c6c0000602082015250565b7f4552433732313a206d696e7420746f20746865207a65726f2061646472657373600082015250565b7f4f776e61626c653a2063616c6c6572206973206e6f7420746865206f776e6572600082015250565b7f4552433732313a20696e76616c696420746f6b656e2049440000000000000000600082015250565b7f4552433732313a20617070726f76616c20746f2063757272656e74206f776e6560008201527f7200000000000000000000000000000000000000000000000000000000000000602082015250565b50565b7f4552433732313a2063616c6c6572206973206e6f7420746f6b656e206f776e6560008201527f72206e6f7220617070726f766564000000000000000000000000000000000000602082015250565b600381106138f9576138f861346b565b5b50565b61390581613219565b811461391057600080fd5b50565b61391c8161322b565b811461392757600080fd5b50565b61393381613241565b811461393e57600080fd5b50565b61394a816132ae565b811461395557600080fd5b5056fea264697066735822122017b450680a2bfa93f22c0bbb538c9a6a902add40eefcf22ab244864a4a63d6d964736f6c63430008070033",
  "devdoc": {
    "kind": "dev",
    "methods": {
      "approve(address,uint256)": {
        "details": "See {IERC721-approve}."
      },
      "balanceOf(address)": {
        "details": "See {IERC721-balanceOf}."
      },
      "getApproved(uint256)": {
        "details": "See {IERC721-getApproved}."
      },
      "isApprovedForAll(address,address)": {
        "details": "See {IERC721-isApprovedForAll}."
      },
      "name()": {
        "details": "See {IERC721Metadata-name}."
      },
      "owner()": {
        "details": "Returns the address of the current owner."
      },
      "ownerOf(uint256)": {
        "details": "See {IERC721-ownerOf}."
      },
      "renounceOwnership()": {
        "details": "Leaves the contract without owner. It will not be possible to call `onlyOwner` functions anymore. Can only be called by the current owner. NOTE: Renouncing ownership will leave the contract without an owner, thereby removing any functionality that is only available to the owner."
      },
      "safeTransferFrom(address,address,uint256)": {
        "details": "See {IERC721-safeTransferFrom}."
      },
      "safeTransferFrom(address,address,uint256,bytes)": {
        "details": "See {IERC721-safeTransferFrom}."
      },
      "setApprovalForAll(address,bool)": {
        "details": "See {IERC721-setApprovalForAll}."
      },
      "supportsInterface(bytes4)": {
        "details": "See {IERC165-supportsInterface}."
      },
      "symbol()": {
        "details": "See {IERC721Metadata-symbol}."
      },
      "tokenURI(uint256)": {
        "details": "See {IERC721Metadata-tokenURI}."
      },
      "transferFrom(address,address,uint256)": {
        "details": "See {IERC721-transferFrom}."
      },
      "transferOwnership(address)": {
        "details": "Transfers ownership of the contract to a new account (`newOwner`). Can only be called by the current owner."
      }
    },
    "version": 1
  },
  "userdoc": {
    "kind": "user",
    "methods": {},
    "version": 1
  },
  "storageLayout": {
    "storage": [
      {
        "astId": 331,
        "contract": "contracts/RandomIpsfsNft.sol:RandomIpfsNft",
        "label": "_name",
        "offset": 0,
        "slot": "0",
        "type": "t_string_storage"
      },
      {
        "astId": 333,
        "contract": "contracts/RandomIpsfsNft.sol:RandomIpfsNft",
        "label": "_symbol",
        "offset": 0,
        "slot": "1",
        "type": "t_string_storage"
      },
      {
        "astId": 337,
        "contract": "contracts/RandomIpsfsNft.sol:RandomIpfsNft",
        "label": "_owners",
        "offset": 0,
        "slot": "2",
        "type": "t_mapping(t_uint256,t_address)"
      },
      {
        "astId": 341,
        "contract": "contracts/RandomIpsfsNft.sol:RandomIpfsNft",
        "label": "_balances",
        "offset": 0,
        "slot": "3",
        "type": "t_mapping(t_address,t_uint256)"
      },
      {
        "astId": 345,
        "contract": "contracts/RandomIpsfsNft.sol:RandomIpfsNft",
        "label": "_tokenApprovals",
        "offset": 0,
        "slot": "4",
        "type": "t_mapping(t_uint256,t_address)"
      },
      {
        "astId": 351,
        "contract": "contracts/RandomIpsfsNft.sol:RandomIpfsNft",
        "label": "_operatorApprovals",
        "offset": 0,
        "slot": "5",
        "type": "t_mapping(t_address,t_mapping(t_address,t_bool))"
      },
      {
        "astId": 1319,
        "contract": "contracts/RandomIpsfsNft.sol:RandomIpfsNft",
        "label": "_tokenURIs",
        "offset": 0,
        "slot": "6",
        "type": "t_mapping(t_uint256,t_string_storage)"
      },
      {
        "astId": 200,
        "contract": "contracts/RandomIpsfsNft.sol:RandomIpfsNft",
        "label": "_owner",
        "offset": 0,
        "slot": "7",
        "type": "t_address"
      },
      {
        "astId": 2391,
        "contract": "contracts/RandomIpsfsNft.sol:RandomIpfsNft",
        "label": "s_requestIdTosender",
        "offset": 0,
        "slot": "8",
        "type": "t_mapping(t_uint256,t_address)"
      },
      {
        "astId": 2393,
        "contract": "contracts/RandomIpsfsNft.sol:RandomIpfsNft",
        "label": "s_tokenCounter",
        "offset": 0,
        "slot": "9",
        "type": "t_uint256"
      },
      {
        "astId": 2399,
        "contract": "contracts/RandomIpsfsNft.sol:RandomIpfsNft",
        "label": "s_dogTokenUris",
        "offset": 0,
        "slot": "10",
        "type": "t_array(t_string_storage)dyn_storage"
      }
    ],
    "types": {
      "t_address": {
        "encoding": "inplace",
        "label": "address",
        "numberOfBytes": "20"
      },
      "t_array(t_string_storage)dyn_storage": {
        "base": "t_string_storage",
        "encoding": "dynamic_array",
        "label": "string[]",
        "numberOfBytes": "32"
      },
      "t_bool": {
        "encoding": "inplace",
        "label": "bool",
        "numberOfBytes": "1"
      },
      "t_mapping(t_address,t_bool)": {
        "encoding": "mapping",
        "key": "t_address",
        "label": "mapping(address => bool)",
        "numberOfBytes": "32",
        "value": "t_bool"
      },
      "t_mapping(t_address,t_mapping(t_address,t_bool))": {
        "encoding": "mapping",
        "key": "t_address",
        "label": "mapping(address => mapping(address => bool))",
        "numberOfBytes": "32",
        "value": "t_mapping(t_address,t_bool)"
      },
      "t_mapping(t_address,t_uint256)": {
        "encoding": "mapping",
        "key": "t_address",
        "label": "mapping(address => uint256)",
        "numberOfBytes": "32",
        "value": "t_uint256"
      },
      "t_mapping(t_uint256,t_address)": {
        "encoding": "mapping",
        "key": "t_uint256",
        "label": "mapping(uint256 => address)",
        "numberOfBytes": "32",
        "value": "t_address"
      },
      "t_mapping(t_uint256,t_string_storage)": {
        "encoding": "mapping",
        "key": "t_uint256",
        "label": "mapping(uint256 => string)",
        "numberOfBytes": "32",
        "value": "t_string_storage"
      },
      "t_string_storage": {
        "encoding": "bytes",
        "label": "string",
        "numberOfBytes": "32"
      },
      "t_uint256": {
        "encoding": "inplace",
        "label": "uint256",
        "numberOfBytes": "32"
      }
    }
  }
}